:1000000000000120750300005D0300005F03000095
:1000100061030000630300006503000000000000AE
:100020000000000000000000000000006703000066
:1000300069030000000000006B0300006D03000076
:100040006F0300006F0300003117000075190000F6
:10005000851900006F0300006F0300006F030000AC
:100060006F0300006F0300006F0300006F030000C8
:100070006F0300006F0300006F0300006F030000B8
:100080006F0300006F0300006F0300006F030000A8
:100090006F0300006F0300006F0300006F03000098
:1000A0006F0300006F0300006F0300006F03000088
:1000B0006F0300006F03000000000000000000005C
:1000C0006F0300006F0300006F0300006F03000068
:1000D0006F0300006F0300006F03000000000000CA
:1000E0000000000000000000000000000000000010
:1000F0000000000000000000000000000000000000
:1001000000000000000000000000000000000000EF
:1001100000000000000000000000000000000000DF
:1001200000000000000000000000000000000000CF
:1001300000000000000000000000000000000000BF
:1001400000000000000000000000000000000000AF
:10015000000000000000000000000000000000009F
:10016000000000000000000000000000000000008F
:10017000000000000000000000000000000000007F
:10018000000000000000000000000000000000006F
:10019000000000000000000000000000000000005F
:1001A000000000000000000000000000000000004F
:1001B000000000000000000000000000000000003F
:1001C000000000000000000000000000000000002F
:1001D000000000000000000000000000000000001F
:1001E000000000000000000000000000000000000F
:1001F00000000000000000000000000000000000FF
:10020000354936480A1A02D0072291438D463449AF
:1002100034480A1A06D00722914381F30988022242
:1002200082F3148830483149314A00F044F83148AB
:100230003149324A00F03FF831483249324A00F041
:100240003AF832483249334A00F035F832483349F7
:10025000334A00F030F833483349344A00F02BF881
:1002600033483449344A00F026F8344834490022EF
:1002700000F02CF833483449002200F027F83348C6
:100280003349091A082902DB002202604160314A21
:1002900090471F481F49884205D00268043003B4C4
:1002A000904703BCF7E700208646EC46002000217B
:1002B000294A9047FEE7884207D0521A05D00378B2
:1002C00001300B700131013AF9D17047884202D0F8
:1002D00002700130FAE770470000012000E00020C2
:1002E0000000012000000120FC340000000000207C
:1002F0003C000020D0030000D00300001C300000B0
:10030000FC340000000000200000002078300000D5
:10031000783000007830000078300000783000003D
:10032000783000007830000078300000FA340000A7
:10033000383500003C0000203C0000203C0000203C
:10034000B0090020B0090020B0090020B009002049
:10035000B02900209D030000D9260000FEE7FEE73B
:10036000FEE7FEE7FEE7FEE7FEE7FEE7FEE7FEE765
:1003700000F002B8FFF7FCBF0F484FF007018843B9
:1003800085460E4880470E48016841F470010160BF
:10039000BFF34F8FBFF36F8FFFF732BF09480A4992
:1003A0000A4A884207D0521A05D0037801300B70F0
:1003B0000131013AF9D1704700000120392A0000CB
:1003C00088ED00E0783000000000002000000020F0
:1003D0007047000007B5044B0093044A402300F027
:1003E00032F803B05DF804FBF10300003D0000208B
:1003F0002DE9F84388461446B2B10F4B0F4E032542
:10040000002743F00109224608EB0701002002F013
:10041000BFFA0744241A48B933782BB14FF47A4015
:10042000C847013D02D13570BDE8F8830123337020
:10043000002CE8D1F8E700BF803000003C0000202D
:10044000704702F0D5BAF0B595B01D46164608467D
:100450000C4601F033F81A9B0D93CDE90865002591
:100460002B46082205A920460A958DF82C500C959C
:1004700001F040F8079B0293069B03939DF814300C
:100480008DF8115003F00302012A1DD1BDF814208C
:10049000059DC3F3C203C2F383168DF81030B2007A
:1004A00008230EA9204601F025F8C5F3952508ABD1
:1004B0000093324602AB0EA9284600F0ADFB204661
:1004C00001F000F815B0F0BD022AF8D1BDF81650C1
:1004D000C3F3C203C5F389158DF810300827082D22
:1004E0002E4628BF08263B4632460EA9204601F07C
:1004F00001F8AD1B08AB02AA31460EA8374400F044
:10050000EFFB002DEBD1DAE7014B01221A707047A7
:10051000BE0000207047000070B50E4D06460FCD9E
:1005200088B06C460FC495E80F00002E84E80F00D9
:10053000094A0A484FF0060308BF002269460093A3
:1005400001F0B8F808B100F074FC054B1E7008B05B
:1005500070BD00BF943000000905000000000020BD
:100560007D00002007B5044B0093044A4023FFF7A9
:100570006AFF03B05DF804FB810500007E000020E7
:1005800038B50D480D4C0E4D002323700378EB5CFD
:10059000D2B263B1043002F051F808B100F049FC66
:1005A000084B1A7812B12378002BFBD038BD0C30E1
:1005B00001F0F2FDF1E700BF00000020BE000020C6
:1005C000640600207D00002008B50848084A03782A
:1005D000D35C3BB1043001F095FFBDE8084000203A
:1005E000FFF79ABF0C3001F061FDF6E70000002034
:1005F000640600200120FFF78FBF000038B50A4DC8
:10060000FFF71FFF0421284600F070FA074B012472
:100610005C71FFF7EFFF042105F1100000F066FAAE
:10062000034B5C7138BD00BF443000001400002053
:100630001C000020037813F0040216D003F003031B
:10064000012B03D0022B09D0012070470A680088D3
:100650000232C0F3831002440A60F5E70B68428857
:10066000023303EB92130B60EEE710467047000075
:100670002DE9F04FDFF810A10F4685B00446861C27
:100680000020154600F02AFCDAF804203A60DAF877
:10069000083003F580739B1A0AF21C470AF5836938
:1006A0000AF21448B34219D30020002D68D004F098
:1006B0000F039B0143F0050363F30F00DAF80430E6
:1006C000DAB2033233444AF822000020CAF8043078
:1006D00000F006FC012005B0BDE8F08F012138468E
:1006E00000F023FC484600F038FC404600F035FCA2
:1006F000DAF808000090C0B203300AEB80006946C7
:10070000FFF798FF009B30BBDAB20AEB8202D16898
:1007100001919A1C0133DBB20AEB83030092D3F8F8
:100720000CB001F00303012B22D0022B15D083461D
:10073000404600F015FC10B1009BCAF8083059463D
:10074000384600F0F2FBDAF80830DAF8042003F556
:1007500080739B1AA6E7D8B2CEE7BDF80630C3F384
:10076000891303334FEA1B4B02EB93030093DFE73C
:10077000BDF80430C3F383134FEA1B4B1344F5E772
:10078000A40544F0060099E790010020064B0748B5
:1007900010B500221A7000F04AFE044610B9044851
:1007A00000F0B2FE204610BD900100206430000031
:1007B000F830000030B50A4C71B10A4A0A49121BE0
:1007C000D20800239A4201D1002030BD31F82350D5
:1007D000854202D00133F5E7034654F83300F4E7CD
:1007E0001C3000004430000000000020094B01399B
:1007F00003EBC000032909D8DFE801F00A02040670
:100800000420704700797047407970470020704796
:10081000022070471C300000034BD3E90130C31A9B
:1008200058425841704700BF900100202DE9FF4118
:10083000FFF7F2FF0546002840F0E980754CC4F848
:100840001804BFF34F8FA3680093DBB2033304EBAC
:1008500083006946FFF7EEFE009B18B1D4F8182418
:10086000002A5AD0DAB2991C013304EB8202DBB2BF
:1008700004EB8303D268DB68029302F00303022BCC
:100880000192009154D1BDF806306348C3F3891733
:10089000502F3E4628BF502606F1080166F38F13FD
:1008A000C1F30901ADF8063000F0D9FD0546002876
:1008B00000F0988000F002FE0023082201A92846DB
:1008C00000F00EFE0099CB43DBB20133C9B2033115
:1008D000B6EB830F4FEA830204EB810125D95FFA5F
:1008E00082F80823A6EB0806284600F0F9FDF6B2C8
:1008F00008F10803494903F0FC033246284600F09A
:10090000EFFD009B033703EB97070097D4F81834EB
:10091000002B43D1D4F8106453E062689A4294D813
:10092000A260284604B0BDE8F08108233246E5E71E
:10093000012B57D1BDF804303748C3F38311062982
:1009400028BF062161F38913023101F00F018900EC
:10095000ADF8043000F083FD0546002842D000F0D9
:10096000ADFD0023082201A9284600F0B9FD0026AC
:10097000BDF80420C2F38312B300964203F10803CA
:10098000C4D200994A1CC9B20331009204EB810120
:100990000422284600F0A4FD0136E9E7284600F0CD
:1009A00091FDFFF739FF80F00100C5B2B9E7F368A8
:1009B0005B7923B1336829461B6830469847F36852
:1009C0001E68002EF3D1284600F07CFD304600F072
:1009D00085FAD4F818340BB9009BA360002000F00E
:1009E0007FFADEE7D4F8104454B90D4B0D480E4998
:1009F000C01AC008000440F0020000F05DF8D0E723
:100A0000236820469B689847E3681C68ECE700254C
:100A100087E700BF90010020643000009C010020A7
:100A20001C3000003C300000E13000002DE9F347AD
:100A300004460E46924601A9012218469946FFF740
:100A400017FE1B4F10B3019D4FF00008AA1CC845AC
:100A500008EB020123D11748002100F043FA80F38C
:100A60001000000440EA1440E4006B1C04F0380459
:100A7000DBB2EDB244F0010407EB8303033544EA33
:100A8000881444EA8624D86047F825403B781BB197
:100A9000FFF7CCFE0028FBD102B0BDE8F087C9B259
:100AA00007EB81015AF82830CB6008F10108CEE746
:100AB00090010020AC05002000231A46FFF7B6BFC6
:100AC00007B5CDE9002302236A46FFF7AFFF03B065
:100AD0005DF804FB1FB5CDE90123069B039301AA32
:100AE0000323FFF7A3FF05B05DF804FB30B50F4CFF
:100AF000D4F8102403460020114631B9D968087192
:100B00004AB9C4F810340A6030BDC9680D7985420D
:100B100006D00968F1E7D26814680C601360F3E747
:100B200001300A28E8D14FF0FF30EDE790010020B6
:100B300038B5084B0125D3F810441D7004B938BDF1
:100B4000E3685D71236820465B689847E3681C682A
:100B5000F4E700BF9001002030B5C38885B004469B
:100B60000D4633B1144A00921449154A284600F044
:100B700051FA217A05291DD0637A4BB1A088FFF77D
:100B800035FE104B104953F82020284600F042FA59
:100B9000227A0E4BA08853F8222003920021FFF7FF
:100BA00009FE039A0A490346284605B0BDE83040CD
:100BB00000F030BA05B030BD243100000C31000027
:100BC000043100009031000029310000B4310000F0
:100BD0002C31000007B503460846197A052911D0C3
:100BE0005B7A2BB1094A0A49019000F013FA019887
:100BF0000849019000F00EFA019803B05DF804EB8B
:100C000000F0FDB9002AF8D0F2E700BF243100005F
:100C100029310000873200002DE9F04385B01F46DE
:100C20000C9D002395F80C902B7306460C469046BD
:100C300029463846FFF790FFB8F1060F09D8DFE8DC
:100C400008F00412181F283340003146284600F0EF
:100C5000E1F9002229463846FFF7BCFF85F80C90E1
:100C600005B0BDE8F08322683146284600F0D2F98D
:100C7000EFE7D4E900233146284600F0CBF9E8E756
:100C8000A36800933146D4E90023284600F0C2F956
:100C9000DFE7E3680193A36800933146D4E90023BA
:100CA000284600F0B7F9D4E723690293E36801937B
:100CB000A36800933146D4E90023284600F0AAF93E
:100CC000C7E76369039323690293E3680193A36809
:100CD00000933146D4E90023284600F09BF9B8E799
:100CE00008292DE9F74F80460E4617461C463CD88A
:100CF000002593F80C901D7319461046FFF72CFF42
:100D0000DFF888A0DFF888B0AE4231D918F80520A6
:100D10005946204600F07EF90135082DF4D11949D5
:100D2000194DDFF870A0204600F074F94FF0000B69
:100D30005E4522D918F80B207E2A05D8104601926C
:100D400002F0ECF8019A00B92E225146204600F03C
:100D500061F90BF1010BBBF1080FE9D1012221462A
:100D60003846FFF737FF84F80C9003B0BDE8F08FEA
:100D70005146204600F04EF9CEE72946204600F0C5
:100D800049F9E6E7403100003E3100003C31000007
:100D90003631000042310000044B1A5C01239340BD
:100DA0004FF0A042C2F80835704700BFC8310000BC
:100DB00008B50020FFF7F0FF0120FFF7EDFF02204C
:100DC000FFF7EAFFBDE808400320FFF7E5BF00009A
:100DD000074A4FF0A041105CD1F80435012282404F
:100DE00022EA03001340C1F80805C1F80C3570472A
:100DF000C8310000C20708B501460CD54FF0A0432A
:100E00000322C3F84427C3F84827C3F84C27C3F884
:100E10005027FFF7CDFF8B070AD54FF0A0430C22D8
:100E2000C3F83427C3F83827C3F83C27C3F8402752
:100E300008BD1FB50021039001AA44F20100CDE9CD
:100E4000011100F003F805B05DF804FB38B572B687
:100E5000FFF76EFEFFF7EAFC0028FBD1104B114CA8
:100E6000114D1249E41AE408240444F00100FFF78C
:100E700023FED5F8F030DB0700D500BE0C4944F066
:100E80000200FFF719FEBFF34F8FEA68094B02F427
:100E9000E0621343EB60BFF34F8F00BFFDE700BF7D
:100EA0001C3000003C30000000ED00E0CC310000C0
:100EB000D83100000400FA0572B6024A1368013303
:100EC0001360704748060020034A1368013B136013
:100ED00003B962B6704700BF48060020FFF7ECBFB9
:100EE000FFF7F2BF10B5034653E8000F0A4643E888
:100EF000002494F0000FF7D110BD10B5034653E85D
:100F0000002F42EA010043E8000494F0000FF6D1FC
:100F100010BD10B5034653E8000F00EA010243E894
:100F2000002494F0000FF6D110BD10B5034653E82D
:100F3000002F02EB010043E8000494F0000FF6D10B
:100F400010BD10B5034653E8002FA2EB010043E8A3
:100F5000000494F0000FF6D110BD0121FFF7CDBFC2
:100F60000021FFF7D6BF10B590B1D0E90123016889
:100F70009B1ADBB20A60013BDBB2FF2B026802D195
:100F80000020107110BD11684C1C14600B70F2E74A
:100F90000E20F7E738B504460020FFF79FFF2268D0
:100FA00063681168994213D9481E106011F8013C1A
:100FB000E568218A01FB0355A36811791B1ADBB28E
:100FC000994200D213710020FFF78AFF284638BDEE
:100FD0000025F8E738B5054600200C46FFF77EFFF0
:100FE0002A681368591C1160E968641A298AB4FBDD
:100FF000F1F41C70BDE838400020FFF771BF826833
:1010000010B504462AB14369016800699847002376
:10101000A36010BD0EB403B5039921B104AB01AABE
:10102000019300F077F802B05DF804EB03B070476D
:101030000A2938B504460D4602D10D21FFF7F8FF05
:10104000A3682268591CA160D554D4E901329A42A0
:1010500004D32046BDE83840FFF7D1BF38BD0000BB
:101060002DE9F84F9846DDE90A43154682460F46BA
:101070000A464FF00109AA420FD2C14538BFC14606
:1010800013F0010B01D16CB900240126B8F1010F56
:101090001BD908F1FF386E43F8E709F10109B2FBEB
:1010A000F5F2E8E79B070ED5B8F1000F0CBF30262C
:1010B0002026A145E9D2013C31465046FFF7B8FF52
:1010C000002CF6D1E0E72026F3E7B7FBF6F39D42CC
:1010D000E1D9DFF83C80B7FBF6F3504618F803106F
:1010E00006FB1377FFF7A4FF3346AB42B6FBF5F6DA
:1010F000F1D2BBF1000F02D00CB1A14501D3BDE884
:10110000F88F20215046013CFFF792FFF4E700BF23
:10111000E53100002DE9F74F0546174688460029BE
:1011200000F03E8118F8011B49B92B7B002B00F021
:101130003781284603B0BDE8F04FFFF760BF25298F
:1011400040F0B780002698F800302D2B424608F179
:10115000010823D0302B24D02B2B25D000242A2B80
:1011600002F1010123D13B681A1D1B683A601C443F
:101170000A4613782E2B26D101324FF0000A104672
:1011800010F8011BA1F1300CBCF1090F1DD80A2386
:1011900003FB0A13A3F1300A0246F0E746F001060A
:1011A000D1E746F00206CEE746F00406CBE711F899
:1011B000013CA3F130000928DBD80A2202FB0434E9
:1011C000303C0A46CBE74FF0000A12F8011B01F051
:1011D000FB0068289046F8D0782909D86F290CD8E8
:1011E000632962D022D8252963D0582900F088804D
:1011F00098F80030002B95D197E770390829F7D877
:1012000001A353F821F000BF7B130000F11100008F
:10121000F111000011130000F1110000EF120000A5
:10122000F1110000F111000001130000642901D048
:101230006929DDD13A68D2F80090111D89EAE97276
:101240003960A2EBE9724FF0010B092A35DCD34576
:1012500038BFD3462CB1B9F1000F01DB720700D5BE
:10126000013CB30702D5BAF1000F03D0F00701D457
:101270004CBB0024B9F1000F2DDAC9F100092D2172
:101280002846FFF7D5FE06F00302022A04D1BAF180
:10129000000F01D11CBB0024CDE9004653460A22B1
:1012A00049462846FFF7DCFEA2E73B681A1D19787D
:1012B0003A602846FFF7BCFE9AE70A230BF1010BC0
:1012C000B2FBF3F2C1E7A345D4D220212846013C6A
:1012D000FFF7AEFECCE77107D5D52B21D0E7A345AC
:1012E000DAD230212846013CFFF7A2FED2E7396866
:1012F000CDE900460A1D3A6053460A220968D0E744
:1013000039680A1D3A60CDE9004653461022F5E7D8
:101310003B681A1D3A6016F00106D3F8009024D1FC
:10132000B9F1000F03D0484601F048FE0646B4422A
:101330001DD809F1FF3919F8011F00293FF458AFF2
:101340002846FFF775FEF6E728460136FFF770FEE0
:1013500019F806100029F7D1A642BFF449AF2021A1
:101360002846013CFFF764FEF6E70026F0E720215F
:101370002846013CFFF75CFED9E73B681A1D3A603E
:10138000302128461C68FFF753FE78212846FFF7D6
:101390004FFE00220823CDE900322146102280E7CB
:1013A00003B0BDE8F08F00BF2DE9F84FB0F806A0FC
:1013B0004579D2F800B09DF828900AFB05F5043D68
:1013C00088460BEB0301A94203F1040488BFA5EB97
:1013D000030BB4FBFAF607460AFB1644C2F800B04A
:1013E0004EB9AAEB04055D4528BF5D46BBF1000F71
:1013F00004D1BDE8F88F3F68013EF1E7043408EB03
:1014000006003C442A46B9F1000F0DD02146ABEB53
:10141000050B01F088FDDA452E443F6855464FF034
:10142000000428BF5D46E1E701462046EFE7FFF7ED
:101430009ABDF8B546790146721E054600239342CF
:101440002D6803D30024A64202D8F8BD0133F6E785
:101450000F682846FFF7BEFD01343946F3E72DE952
:10146000F843068ACD1C0746FFF794FD043E354439
:101470000446B5FBF6F5F0B14FF48073EDB283800E
:10148000C680013D076081464FF00008A84512D292
:101490003846FFF77FFD064648B163790133637133
:1014A00008F10108C9F8000007608146EEE7204610
:1014B000FFF7BFFF34462046BDE8F8830121043022
:1014C000FFF733BD10B5012104460430FFF739FDA5
:1014D000C0B220B92046BDE81040FFF7AABF10BD3A
:1014E0001FB503920022009203AAFFF75DFF05B02B
:1014F0005DF804FB1FB503920122009203AAFFF7D7
:1015000053FF05B05DF804FB836800225A60C3E90D
:1015100004229A60DA601A60704700001FB50378F1
:101520008DF800308388ADF8043083688DF806307C
:10153000C3688DF80730036902934369054A039332
:10154000054B684653F8213052F82110984705B0F2
:101550005DF804FB4C06002054060020024B4FF4BB
:10156000807043F001031847003200002DE9F04776
:10157000154690F80090324A42F82950314A42F814
:1015800029304B7B07460C466BB3086849688200DC
:101590008B0002F1A04203F1A04340F20C66C2F8B6
:1015A00000674FF0010AC3F800674FF0A0460AFA3F
:1015B00000F00AFA01F1C6F80805C6F8081540F26D
:1015C0000D61C2F80017C3F80017FFF7C7FF4FF00F
:1015D0000008D6F81025636822FA03F3DB070DD55F
:1015E000B8F1000F1DD1002D174A4B4608BF2A46FF
:1015F0002146381DBDE8F04700F0CCB923680AFA4F
:1016000003F3C6F80C35FFF7A9FF23680AFA03F3C2
:10161000C6F8083508F10108FFF7A0FFB8F1090F77
:10162000D7D1636801264FF0A04806FA03F3C8F843
:101630000C35FFF793FF63689E40C8F80865D2E752
:10164000540600204C0600201D1500001FB503782D
:101650008DF800304368019383688DF80830C368C3
:10166000054A0393054B684653F8213052F8211080
:10167000984705B05DF804FB5C060020600600207A
:101680001FB503788DF800304368019383688DF8A7
:101690000830C368054A0393054B684653F8213068
:1016A00052F82110984705B05DF804FB5C06002055
:1016B00060060020F0B5194B90F800C091F81DE0CD
:1016C00043F82C20164B16460A6943F82C20154B7C
:1016D00003F80CE00C4607460FCC89B06D460FC5E9
:1016E00094E80F0085E80F00CDF810C0BEF1000FA0
:1016F00009D0002E0C4A694608BF3246381D00F05A
:101700003FFE09B0F0BD002E084A694608BF3246C8
:1017100007F10C0000F016FCF3E700BF60060020A4
:101720005C060020640600204D16000081160000B3
:10173000014B1B68184700BF6806002038B50B4BEB
:1017400098420C4601D0002038BD0020FFF7C6FBB0
:10175000074B1D7915B901221C601A710020FFF793
:10176000BFFB002DEFD01120EEE700BF00200040AE
:1017700068060020034B984201BF034B00221A6009
:101780001A71704700200040680600200023435073
:1017900082B043580193019B02B070470B7B032B2F
:1017A0002AD8DFE803F022261A028B685A0304D5F0
:1017B000D0F84C350A699A4207D18B685B031BD479
:1017C000D0F84C354A699A4216D000230622C0F858
:1017D0000035C0F8002518467047D0F84C350A6926
:1017E0009A42F2D1D0F83C35ECE7D0F84C350A6992
:1017F000E9E7D0F83C35FAE701207047F0B5D0F8BA
:10180000243187B004460D46EBB14FF49271FFF7D7
:10181000BDFFD0F80431B3B9AB68C0F80833022378
:10182000AB60AB68C0F80433D0F860311BB1D0F8BE
:1018300000329B0502D4012323626361012385F8F2
:101840002E3007B0F0BDD4F80431002B41D04FF456
:1018500082712046FFF79AFF2B6A5F0609D495F83C
:101860002E3033B92946FFF799FF80F0010085F843
:101870002E002B6A5E073ED405F10C070FCF01AE98
:101880000FC63B6833604FF4B0712046FFF77EFF10
:101890004FF4AE71FFF77AFF95F8303013B195F839
:1018A0002E3043B30023C4F80032AB602F4BC4F892
:1018B000083344F30733002B4FEA14321BDB02F0EA
:1018C0001F015B0901228A406033294941F8232026
:1018D00011E04FF4A4712046FFF758FF2B7B23BB88
:1018E00005F10C070FCF01AE0FC63B68336095F8CA
:1018F0003030002BD7D0D4F8C434C4F8C43498079F
:1019000025D501238DF8003095F830300BB985F8D6
:101910002F302B6A5B0703D595F82E30002B90D023
:10192000D5E90031684698478BE74FF40073C4F857
:10193000003240F20223AB6003F1CE73C4F80833E7
:10194000AB68C4F804330123A360236279E7590725
:1019500001D50223D6E7DA0701D50323D2E795F8AC
:101960002E30002BCED00423CCE700BF02029C0116
:1019700000E100E001490248FFF740BF7006002087
:101980000030004002494FF04020FFF737BF00BF52
:10199000A40600202DE9F84F0679314D4FF0340AA6
:1019A0000AFB06FA05EB0A079B4697F82D3080469E
:1019B0000C469146002B4FD12A4B006853F8261055
:1019C000FFF7BCFE002849D12168637B87F83230DD
:1019D00001F5E0724FF0A043B860C7F804B087F893
:1019E0002F0087F8300040F20C6745F80A9043F862
:1019F0002270626802F5E07C43F82C70D8F8003061
:101A0000C3F80815C3F80C25A268C3F82425B9F15A
:101A1000000F14D0227B43F3073152010029C3F396
:101A20000733D2B213DB104C671887F8002301226A
:101A3000490903F01F0302FA03F344F82130342369
:101A400003FB0655012385F82D30BDE8F88F0749C3
:101A500003F00F03CA54F2E70820F6E71120F4E779
:101A6000700600201032000000E100E014ED00E0FC
:101A7000036802790621C3F80015044B342101FBE9
:101A80000233022283F82D20704700BF7006002029
:101A90002DE9F843DFF8C88290F8049004683426F2
:101AA00006FB0986002386F82E30CB6803F06043DE
:101AB000B3F1005F0D46174603D010263046BDE84F
:101AC000F883A64BC4F8083396F82F3023B1B368D7
:101AD000C4F804331126F1E712F0140F0CBF0123F0
:101AE000002386F82F308E46BEE80F0006F10C0C5E
:101AF000ACE80F00DEF80030CCF80030C7F300137C
:101B000086F8303037626B78C4F8883520464FF459
:101B10008271FFF73BFE4FF49271FFF737FE4FF4EF
:101B2000B071FFF733FE4FF4A471FFF72FFE17F0EB
:101B3000010318BF0123C4F8503517F0020318BF82
:101B40000123C4F840352B78032B00F2B580DFE881
:101B500003F084A069022B6903F06043B3F1005FD6
:101B6000ABD14FF48073C4F80032EA686B68C4F8F4
:101B700044254FF4A871C4F84835FFF707FE012348
:101B80002362A360D4F85031002BFBD04FF4A8712E
:101B90002046FFF7FBFDAB682A69C4F84425C4F86A
:101BA0004835342303FB09834FF480229A600823CD
:101BB00000263A0704D42A78032A1CBF0122E250E7
:101BC000342303FB09F308EB030258F80330002B1E
:101BD00075D10125D4F84821D4F80431002B40F008
:101BE0008980003A18BF0122D4F82431002B00F07C
:101BF00088804FF492712046FFF7C8FDD4F8601139
:101C0000D4F8003209B1980504D425626561002931
:101C1000E0D00022D90574D54FF4A4712046FFF717
:101C2000B5FDD7E76B68EA68C4F84425C4F84835C1
:101C30002B6903F06042B2F1005F7FF43EAFAA6807
:101C4000C4F834354FF48453C4F83825C4F800324E
:101C5000342303FB0983022212E06B68EA68C4F8AC
:101C6000442517F0200FC4F848354FF034030BD04B
:101C70004FF48072C4F8002203FB09834FF48022E2
:101C80009A600123236292E74FF40072C4F80022A5
:101C9000DFE76B68EA68C4F83425C4F838354FF4D8
:101CA0008053C4F80032342303FB098302229A6074
:101CB0000123236200237BE70823072679E77B07BC
:101CC00044BF002393607D0606D4342303FB0983BD
:101CD0009A6842F002029A60342303FB0988D8F81C
:101CE000083043F40073C8F80830D8F80830C4F856
:101CF0000433E3E64FF482712046FFF747FD0122EB
:101D000072E7002A3FF466AF3421D4F8C434C4F833
:101D1000C43401FB0982002082F82F0093B113F034
:101D2000010F14BF4FF40246032648F2012213F0BC
:101D3000020F18BF164613F0040F48F2022318BF13
:101D40001E46BBE67B063FF5B9AE09FB0181204686
:101D5000FFF724FD002808BF0326AFE602029C011E
:101D60007006002010B586B0012402930023CDE94F
:101D700003328DF805101A4601A98DF80440059329
:101D8000FFF786FE06B010BD0023435082B04358D3
:101D90000193019B02B070470A4610B54FF48E7153
:101DA000FFF7F2FF136A9168C95C136A013313628B
:101DB000C0F81C1510BD8B690A4610B54FF484712C
:101DC00023B9FFF7E1FFD0F8183510BDFFF7DCFFAE
:101DD000536AD168D0F81805C854536A0133536266
:101DE000F3E700001FB501238DF80030044BCDE967
:101DF0000110D3E900126846904705B05DF804FB76
:101E0000D806002030B54D4DD5F804339A0585B07D
:101E100051D5D5F82431002B4DD04FF4927128467E
:101E2000FFF7B2FF4FF40173C5F80833444B93F842
:101E300029200AB901226A60404902228DF8002057
:101E4000D1F88024C1F8802403929A690292DA685A
:101E500001920022C3E906226846D3E900129047A6
:101E60003648D0F81C315BB1354A5169136A994242
:101E70004DD992F82830002B49D11146FFF78CFF3D
:101E80002E48D0F84431002B56D04FF4A271FFF702
:101E90007BFF2B4B93F829200AB1012202609A693B
:101EA000002A49D0586AD96800229A6105B0BDE875
:101EB0003040FFF797BFD5F804335B07D0D5D5F88E
:101EC0000831002BCCD01E4C1C482146FFF773FF75
:101ED000636AA2699A42C3D1E369E1684BB1A36125
:101EE0002369E3600023606AE3616362FFF77AFFBE
:101EF000B6E794F829300BB901236B600F4B4FF410
:101F00000172C3F808230023606AA361EEE70B485F
:101F10004FF48E71FFF738FF5369002BB0D0516931
:101F20000291002391688DF8003001915361684659
:101F3000D2E900139847A3E705B030BD0020004068
:101F4000D80600202DE9F843534D90F804802C2347
:101F500003FB0853064693F82A300C469146002BA3
:101F600040F096804D490068FFF7E8FB07460028DF
:101F700040F0908022683068511C0BD04FF0A04197
:101F800001239340C1F8083502F5E0734FF0030CCC
:101F900041F823C061684B1C1FBF01F5E0734FF08F
:101FA000A04C4FF0000E4CF823E0A369C0F8243594
:101FB00094F814C0637DBCF1010F4CEA0303C0F830
:101FC0006C35C0F81415C0F80C251DD1A268531C3F
:101FD0001FBF02F5E0734FF0A0414FF0000C41F835
:101FE00023C0E368591C0BD04FF0A04C012199404D
:101FF000CCF8081503F5E0714FF0030E4CF821E022
:10200000C0F80835C0F810252C2202FB08F2AB18E6
:10201000C3F804902369AB50B9F1000F20D04FF4FE
:102020008E71247FFFF7B0FE4FF4A2713068FFF786
:10203000ABFE32681A4BC2F80433130B42F307327B
:102040006101002AC9B21EDB1648841884F8001307
:102050000121520903F01F0301FA03F340F8223073
:1020600033680422C3F800252C2303FB0853002205
:10207000C3E9062283F829205A61012283F82A2025
:102080003846BDE8F883084A03F00F03D154E7E768
:102090000827F5E71127F3E7D8060020051E000002
:1020A0008000020000E100E014ED00E0F8B50368F4
:1020B0000579304C0022C3F800252C2202FB054292
:1020C0005268A2B12C4AC3F808231A0B43F3073312
:1020D000002B0CDB02F01F015B0901228A40203338
:1020E000264941F82320BFF34F8FBFF36F8F00685D
:1020F000D0F80C65D0F81415D0F80835D0F81025B4
:102100004FF0FF37BE42C0F8147518BF06F5E076F1
:10211000C0F80C75C0F80875C0F810751EBF4FF0F8
:10212000A0474FF0020C47F826C04E1C1FBF4FF0CF
:10213000A04601F5E071022746F82170511C1FBF2F
:102140004FF0A04102F5E072022641F822605A1CCD
:102150001FBF03F5E0734FF0A042022142F82310A5
:10216000FFF708FB2C2303FB0544002384F82A30E7
:102170006360F8BDD80600208402020000E100E0A0
:102180000279044B2C2101FB02335869003818BF37
:1021900001207047D80600202DE9F84F064690F838
:1021A000048089469246FFF7EBFF044600283CD1A5
:1021B000204F2C2508FB057B4FF48E71CBF814A023
:1021C000CBF80890CBF820008BF828003068FFF798
:1021D000DBFD3068012383605946FFF7DDFDDBF846
:1021E00004305D461BBB3068DBF814402B6A9C4210
:1021F00011D83368D3F81C21002AFBD00122DA6001
:1022000000202C2303FB087700237B61BDE8F88FB7
:1022100095F828303BB9D0F81C31002BF8D059463E
:10222000FFF7BAFDE2E70F20EBE71120EEE72046CB
:10223000ECE700BFD80600200023435082B043588B
:102240000193019B02B070471FB501238DF8003048
:10225000044BCDE90110D3E900126846904705B060
:102260005DF804FB040700207FB5434AD2F82461DF
:10227000002E60D010464FF49271FFF7DDFF02236D
:102280008DF80030D2F88034C2F880340393D2F84D
:102290003C350293394BDA6801920022C3E90622E9
:1022A0006846D3E9001290473348D0F8443173B1FF
:1022B0004FF4A271FFF7C0FF304B9A693AB1002288
:1022C000C3E90622D968D0F83C05FFF7BDFF2A48CC
:1022D000D0F82031ABB14FF49071FFF7ADFF01237F
:1022E000C360264B5A6962B1D0F84C1502910022A6
:1022F00099688DF8002001915A616846D3E900126F
:1023000090471D48D0F858319BB14FF4AC71FFF79E
:1023100093FF1A4B5A6962B1D0F84C150291002212
:1023200099688DF8002001915A616846D3E900123E
:10233000904704B070BDD2F81031002BB4D04FF4E8
:1023400088711046FFF778FF0C4BD2F83C0599696D
:102350008842A9D1DC69D96864B1D2F8005225F06D
:102360002005C2F800521A699C61DA60DE61FFF74D
:102370006BFF99E79C61FAE700200040040700200A
:102380002DE9F8435A4E90F80480242303FB086398
:10239000044693F820300D469146002B40F0A38070
:1023A00054490068FFF7CAF90746002840F09D80AD
:1023B0002A682068511C0BD04FF0A04101239340A4
:1023C000C1F8083502F5E0734FF0030C41F823C063
:1023D00069684B1C1FBF01F5E0734FF0A04C4FF034
:1023E000000E4CF823E0AB69C0F8243595F814C012
:1023F0006B7DBCF1010F4CEA0303C0F86C35C0F8EB
:102400000C25C0F814151DD1AA68531C1FBF02F576
:10241000E0734FF0A0414FF0000C41F823C0EB688F
:10242000591C0BD04FF0A04C01219940CCF8081555
:1024300003F5E0714FF0030E4CF821E0C0F80835C9
:10244000C0F81025242202FB08F2B318C3F8049048
:102450002B69B350B9F1000F2FD04FF488712A7F48
:10246000FFF7EAFE20684FF49071FFF7E5FE206861
:102470004FF49271FFF7E0FE20684FF4A271FFF76E
:10248000DBFE4FF4AC712068FFF7D6FE23681A49D3
:10249000C3F80413190B43F307335201002BD2B2D4
:1024A0001CDB1648C51885F8002301225B0901F0E2
:1024B0001F0102FA01F140F8231023680822C3F833
:1024C0000025242303FB08660023C6E90633736155
:1024D000012386F820303846BDE8F883084B01F028
:1024E0000F015A54E9E70827F5E71127F3E700BF82
:1024F00004070020692200001003420000E100E010
:1025000014ED00E0F8B5444C0579242303FB0543A2
:1025100002465B680068ABB1404BC0F8083340F33B
:102520000733002B4FEA10310CDB01F01F065B096B
:102530000121B14020333A4E46F82310BFF34F8FAC
:10254000BFF36F8FD0F8003223F02003C0F80032C1
:10255000242303FB05439B692BB14FF4A271FFF7C2
:102560006BFE012343604FF4AC71FFF765FE01235E
:10257000C360242303FB0543D0F858110029FBD086
:10258000996919B1D0F844110029F5D00023C0F899
:1025900000351368D3F80C75D3F81465D3F8082503
:1025A000D3F810154FF0FF3C6745C3F80CC518BFB2
:1025B00007F5E077C3F814C5C3F808C5C3F810C51C
:1025C0001EBF4FF0A0434FF0020C43F827C0771C0A
:1025D0001FBF4FF0A04306F5E076022743F82670B0
:1025E0004E1C1FBF01F5E0714FF0A043022643F8D7
:1025F0002160531C1FBF4FF0A04302F5E07202217F
:1026000043F82210FFF7B6F8242303FB0544002308
:1026100084F820306360F8BD0407002010034200F6
:1026200000E100E00279044B242101FB02335869E8
:10263000003818BF012070470407002001F06043F4
:10264000B3F1005F2DE9F0470646884692463BD13C
:1026500090F80490FFF7E6FF0446002836D11D4F9E
:102660003068242505FB09754FF49071C5F814A056
:10267000C5F80880FFF7E0FD4FF4AC713068FFF754
:10268000DBFD33686A69A968C3F84415C3F84825B7
:1026900001229A606A68DAB9D3F82021D3F8580188
:1026A0001AB90028F8D00F2007E00028FBD101223A
:1026B000DA60D3F85821002AFBD0242303FB0977E2
:1026C00000237B61BDE8F0871020FBE71120F9E7CC
:1026D0002046F7E704070020002110B50846FEF762
:1026E00055F808B1FEF7A5FBFDF788FF0120FEF7BE
:1026F00081FB0948094B0A49C01AC008000440F090
:102700000300FEF7D9F9FEF791F804460028FAD144
:1027100000F008F8204610BD3C3000001C300000DE
:102720002332000008B51048104B1149C01AC008E8
:10273000000440F00300FEF7BFF9FEF777F8002829
:10274000FBD10C4C00F018F844F0010400F032F812
:102750000020FEF73DFB4FF47A754FF47A40A04716
:10276000013DFAD1F2E700BF3C3000001C30000010
:1027700040320000603200001FB51B221323CDE958
:1027800000234FF0CC710223CDE902130023074848
:102790001A466946FEF7EAFE08B1FEF74AFB04480E
:1027A000FFF766F905B05DF804FB00BF8C3200004E
:1027B0009032000030B52DED028B87B0022304AAC1
:1027C00048212B48FFF7CEFA9DF811509DF8104094
:1027D0008DF814508DF81540BDF81400000900F074
:1027E00007FB244B002200F067FA00F015FB224B98
:1027F000224908EE100A2248C01AC008000440F01E
:1028000003002B4622460390FEF75AF9B5EEC08A24
:10281000F1EE10FA039829D5FFEE007AB4EEE78ABC
:10282000F1EE10FA22DD174ADFED176A1749BDEE07
:10283000C87AB5EEC08AF8EEC77AF1EE10FACCBFCE
:1028400078EE677A77EEC87A17EE103A67EEA67AD6
:10285000FDEEE77ACDED007AFEF73CF9FDF7E6FFF5
:102860000028FBD107B0BDEC028B30BD084ADBE786
:10287000903200000000B03F1C30000066320000C3
:102880003C300000773200000000C842793200007E
:10289000893200000369C26893429CBF80681B189C
:1028A000013B981A70472DE9F843D0E90294054698
:1028B000A9EB04084068904520440F46144404D90D
:1028C00000F031FBEC60BDE8F8834246A4EB09045C
:1028D00000F029FB6868224607EB0801F0E72DE9C4
:1028E000F843C5680646894617464FF00008346924
:1028F000B3687068A54228BFE418013C621B5C1BEA
:10290000BC4228BF3C46944228BF1446494628444E
:10291000224600F008FBB3682544AB4208BF0025FF
:102920003F1BA044A144F560E1D14046BDE8F883D7
:1029300010B5114C114AA2610223C4E90433104BB3
:10294000E361A2644FF400730E4A0F492362E2640C
:1029500000231022E01DA3626362E362A365636546
:10296000E365226500F008FB0849204600F004FBFF
:102970002023A37110BD00BF280700209C32000057
:10298000B0070020A0070020A5320000A9320000F7
:1029900070B5164B182400FB04451D4404FB00339E
:1029A0001646DC6A012C0ED0022C18D0E4B9284659
:1029B000FFF770FF864204D832462846FFF773FFC0
:1029C0003446204670BD2846FFF764FF86423446F1
:1029D00028BF044622462846FFF765FFF1E7284650
:1029E000BDE87040FFF77BBF0024EAE7280700201E
:1029F000FFF79EBF4FF08053D3F83001421C04BF55
:102A00004FF0704393F8E00F831F584258417047CE
:102A10004FF0704393F8E02F062A09D1D3F8E83F2E
:102A2000C3F30313033B032B02D8024AD05C704765
:102A300000207047B832000008B5FFF7DBFF40B157
:102A40004FF080538F4AD3F82433C3F30423C2F8E2
:102A50004035FFF7DDFF10B18B4B8C4A5A67FFF70B
:102A6000C9FF48B14FF080534FF08042D3F8443251
:102A7000C3F34233C2F83C35FFF7CAFF30B1844A92
:102A8000D2F8FC3023F08073C2F8FC30FFF7B2FFBD
:102A900040B14FF080430022C3F80C21C3F810214D
:102AA000C3F83825FFF7B4FF20B14FF0804303226D
:102AB000C3F8A025FFF7ACFF60B1764B0522C3F841
:102AC00010260122C3F888260022C3F818263F22C8
:102AD000C3F814264FF08053D3F83021511C09BF9E
:102AE0004FF07043D3F8343193F8E02FD3F8E83F38
:102AF00008BFC3F30313062A4DD1033B032B03D8AE
:102B0000654AD35C002B46D04FF08052634BD2F81D
:102B10000414C3F82015D2F80814C3F82415D2F809
:102B20000C14C3F82815D2F81014C3F82C15D2F8D9
:102B30001414C3F83015D2F81814C3F83415D2F8A9
:102B40001C14C3F84015D2F82014C3F84415D2F869
:102B50002414C3F84815D2F82814C3F84C15D2F839
:102B60002C14C3F85015D2F83014C3F85415D2F809
:102B70003414C3F86015D2F83814C3F86415D2F8C9
:102B80003C14C3F86815D2F84014C3F86C15D2F899
:102B90004424C3F87025FFF72DFF48B14FF0805350
:102BA0004FF08042D3F8583203F04F03C2F8E43EAE
:102BB000FFF720FF48B14FF08043D3F80024D2073D
:102BC00044BF6FF00102C3F800244FF08053D3F8E4
:102BD0003021062A0ED1D3F83431033B032B02D81F
:102BE0002F4AD35C33B12F4AD2F83C3743F4806389
:102BF000C2F83C37264AD2F8883043F47003C2F852
:102C00008830BFF34F8FBFF36F8F4FF01023D3F88F
:102C10000022002A03DBD3F80432002B2EDA224BE9
:102C20000122C3F80425D3F80024002AFBD04FF07A
:102C300010221521C2F80012D3F80024002AFBD07C
:102C40004FF010231522C3F80422174BD3F80024A9
:102C5000002AFBD00022C3F80425D3F80024002A60
:102C6000FBD0BFF34F8F0A49104BCA6802F4E062F1
:102C70001343CB60BFF34F8F00BFFDE70C4B0D4AF2
:102C80001A6008BD0030014000C007400DF0ADBA29
:102C900000ED00E000500040B032000000C00040F5
:102CA000B43200000010004000E001400400FA05CA
:102CB000240000200090D003F0B540F2FF7681EAB6
:102CC000030C16EA115E1EBFB64516EA1355B5424F
:102CD0005AD021EA465141F48011A1FB024723EA70
:102CE000465343F48013AE44A0FB03650CF0004C44
:102CF00036197D41A1FB034747F10003A0FB0217F2
:102D0000F619654153F10003094218BF46F0010668
:102D100040F2FE74B3F5007F13D2AEF5806EA64587
:102D20002BD24CEA0331280341EA155140EA1650F0
:102D30003203450872F1004250F1000051EB0E5190
:102D4000F0BDAEF2FF3EA64517D24CEAC321E80221
:102D500041EA555140EA5650F202450872F10042EC
:102D600050F1000051EB0E51F0BD0CF0004141F06C
:102D7000FE4141F470010020F0BD1EEA0E0FF4D5B3
:102D80000CF000410020F0BD16EA115F04BF01F015
:102D900000410020004218BF41F0010116EA135F14
:102DA00004BF03F000430022124218BF43F00103A6
:102DB00006EA1354B44218BF9EEA060F03D00CF083
:102DC00000410020F0BD21F0004123F00043B1EBB1
:102DD000065F06D8B3EB065F03D8002918BF002BA7
:102DE000C3D140F20001C7F6F8710020F0BD00BF6A
:102DF00080B110F0004248BFD0F10000120D02F285
:102E00001D42B0FA80F18840521AC30A400503EB14
:102E1000025170470100704701F000428B1AA3F184
:102E20006051B1F5801F0ADBB1F17F6F09D242EA30
:102E3000C102C10071F1004142EB50707047104671
:102E4000704701285B4113F5001F04D842F0FE4093
:102E500040F400007047C90041EA507040EA0200A7
:102E600040F4800040F08040704700BF7F2805D8C4
:102E7000034B185C034B5B5C1840704700207047A5
:102E8000C832000048330000A0F16103192B98BF3D
:102E900020387047A0F14103192B98BF20307047AC
:102EA0007F2805D8034B185C034B5B5C18407047C8
:102EB00000207047C832000048330000A0F16103D1
:102EC000192B98BF20387047A0F14103192B98BFE8
:102ED000203070477F299ABF017001206FF02E00CB
:102EE00070475AB10A787F2A0AD800B102600021DF
:102EF00019605960501A18BF0120704700207047B0
:102F00006FF02E007047000008B5034B5B689B68AC
:102F10001B68984708BD00BF2800002008B509219C
:102F2000FFF7F2FF08BD844640EA010313F0030FE8
:102F300018D18446202A0BD32DE9F007B1E8F80711
:102F4000A0E8F807A2F12002202AF7D2BDE8F00796
:102F5000042A07D351F8043B40F8043BA2F10402D1
:102F6000042AF7D2002A05D011F8013B00F8013BF2
:102F7000013AF9D160467047024610F0030F16D1AE
:102F800011F0030F13D12DE9F0004FF001374FF08E
:102F9000803351F8044BA4EB070525EA04051D40D6
:102FA00002D142F8044BF4E7A1F10401F0BC11F89E
:102FB000013B02F8013B002BF9D1704700F1010100
:102FC00010F0030F11D010F8012B002A23D010F0BD
:102FD000030F0AD010F8012B002A1CD010F0030FA9
:102FE00003D010F8012B002A15D02DE970004FF006
:102FF00001324FF0803350F8044BA4EB020525EA70
:1030000004051D4000D1F6E7A0F1040070BC10F8E3
:0C301000012B002AFBD1A0EB010070474F
:10301C0006320000000000000A3200000000000030
:10302C0018320000000000001D32000000000000FB
:08303C00F23000000000030364
:103044008830000000000000D1300000140000208F
:10305400B430000000000000C03000001C0000205C
:10306400C00000208801002090010020C80000203A
:043074001800000040
:1030780000000000000000000338FDD87047000081
:10308800D503000041040000D1030000FFFFFFFF4B
:10309800FFFFFFFFFFFFFFFFFFFFFFFF0000000034
:1030A800000000000000D6010601000065050000D0
:1030B800C905000015050000756172745F6C6F67C3
:1030C8005F6261636B656E64007274745F6C6F67D6
:1030D8005F6261636B656E64004261636B656E6419
:1030E8007320666C75736865640061707000000019
:1030F800B00500207F000000300600201B5B313B3C
:1031080033316D0025734C6F67732064726F707074
:103118006564202825642925730D0A001B5B306D22
:10312800002573003C25733E2025733A2000202596
:1031380030327800202020007C002563001B5B31A2
:103148003B33306D001B5B313B33326D001B5B3111
:103158003B33336D001B5B313B33346D001B5B31FC
:103168003B33356D001B5B313B33366D001B5B31E8
:103178003B33376D007761726E696E6700696E6602
:103188006F006465627567002431000045310000F6
:10319800043100004D310000553100005D31000060
:1031A800653100006D31000075310000000000003D
:1031B800D23100007D310000853100008A310000E5
:1031C80011121314466174616C206572726F72007B
:1031D80053797374656D207265736574003031328C
:1031E80033343536373839414243444546000000C8
:1031F80000000000000000000338FDD8704750525E
:1032080053005457494D00007519000085190000F6
:10321800554152540055415254450054656D7065EE
:10322800726174757265207363616E6E6572207366
:103238007461727465642E00094D414E41474552D0
:1032480020434F4445205354415254454400000004
:1032580000000000000000000338FDD8704744411A
:1032680054413A20307825782C2030782578002D64
:1032780000544D503A20257325642E253032640DB4
:103288000A000000000000000030004000000000BC
:10329800010000005465726D696E616C00525454EF
:1032A8000053454747455200000001010000000156
:1032B8000100000043000000504F5349580000002F
:1032C800202020202020202020682828282820208E
:1032D80020202020202020202020202020202020E6
:1032E800481010101010101010101010101010109E
:1032F800848484848484848484841010101010103E
:103308001081818181818101010101010101010196
:10331800010101010101010101010110101010104A
:103328001082828282828202020202020202020267
:10333800020202020202020202020210101010200F
:1033480000070320041702010857104080000000FE
:10335800BC320000C0330000D434000053756E0046
:103368004D6F6E00547565005765640054687500AC
:103378004672690053617400000000004A616E00E3
:10338800466562004D617200417072004D617900BE
:103398004A756E004A756C00417567005365700088
:1033A8004F6374004E6F76004465630000000000B0
:1033B800414D00504D000000F8340000F434000086
:1033C800F4340000F4340000F4340000F434000055
:1033D800F4340000F4340000F4340000F434000045
:1033E800FFFFFFFFFFFFFFFFFFFFFFFFFFFF0000E3
:1033F800343400006433000070340000843300006B
:10340800B833000018340000C83400002434000029
:10341800256D2F25642F25790000000025612025C2
:1034280062202565202554202559000053756E64B7
:103438006179004D6F6E64617900547565736461DC
:1034480079005765646E65736461790054687572B4
:1034580073646179004672696461790053617475B7
:1034680072646179000000004A616E7561727900CA
:103478004665627275617279004D617263680041D8
:103488007072696C004D6179004A756E65004A7505
:103498006C79004175677573740053657074656D58
:1034A800626572004F63746F626572004E6F766575
:1034B8006D62657200446563656D62657200000047
:1034C80025483A254D3A2553000000006D2E00008E
:1034D800892E0000952E0000A12E0000BD2E0000B0
:1034E800C92E0000D52E0000E32E000000000000C9
:0234F8002E00A4
:1034FC000000000000200040000000000020004000
:10350C000000000000000000FF00000000000000B0
:10351C00FF0000000090D003583300005833000027
:0C352C00583300005833000058330000F2
:040000030000037581
:00000001FF
